:020000040800F2
:1000000000000220E9220008991D00089B1D00083D
:100010009D1D00089F1D0008A11D00080000000094
:10002000000000000000000000000000A1790008AE
:10003000A31D000800000000417A0008A57A00080E
:100040003923000839230008392300083923000820
:100050003923000839230008392300083923000810
:100060003923000839230008392300083923000800
:10007000A51D00083923000839230008392300088A
:1000800039230008392300083923000839230008E0
:10009000B51D0008C51D00083923000839230008D4
:1000A00039230008392300083923000839230008C0
:1000B000D51D00083923000839230008392300081A
:1000C00039230008392300083923000839230008A0
:1000D00039230008E51D000839230008F51D000834
:1000E0003923000839230008392300083923000880
:1000F0003923000839230008392300083923000870
:10010000392300083923000839230008392300085F
:10011000392300083923000839230008392300084F
:100120003923000839230008051E00083923000878
:10013000392300083923000839230008392300082F
:10014000151E0008251E000839230008351E00086A
:10015000392300083923000839230008392300080F
:1001600039230008392300083923000839230008FF
:100170003923000839230008392300080000000053
:080180003923000839230008AF
:1001900010B5054C237833B9044B13B10448AFF3C1
:1001A00000800123237010BDE00900200000000042
:1001B0001CE0000808B5034B1BB103490348AFF32B
:1001C000008008BD00000000E40900201CE00008D9
:1001D00053B94AB9002908BF00281CBF4FF0FF31AE
:1001E0004FF0FF3001F0DEB8ADF1080C6DE904CE40
:1001F00000F006F8DDF804E0DDE9022304B0704702
:100200002DE9F047089D04468E46002B4DD18A42C9
:10021000944669D9B2FA82F252B101FA02F3C2F1FC
:10022000200120FA01F10CFA02FC41EA030E94408D
:100230004FEA1C48210CBEFBF8F61FFA8CF708FBAE
:1002400016E341EA034306FB07F199420AD91CEB86
:10025000030306F1FF3080F01F81994240F21C81B8
:10026000023E63445B1AA4B2B3FBF8F008FB103300
:1002700044EA034400FB07F7A7420AD91CEB040435
:1002800000F1FF3380F00A81A74240F20781644405
:10029000023840EA0640E41B00261DB1D44000238A
:1002A000C5E900433146BDE8F0878B4209D9002DEE
:1002B00000F0EF800026C5E9000130463146BDE878
:1002C000F087B3FA83F6002E4AD18B4202D38242E2
:1002D00000F2F980841A61EB030301209E46002D91
:1002E000E0D0C5E9004EDDE702B9FFDEB2FA82F2E6
:1002F000002A40F09280A1EB0C014FEA1C471FFA44
:100300008CFE0126200CB1FBF7F307FB131140EA2A
:1003100001410EFB03F0884208D91CEB010103F1F7
:10032000FF3802D2884200F2CB804346091AA4B2B9
:10033000B1FBF7F007FB101144EA01440EFB00FE8D
:10034000A64508D91CEB040400F1FF3102D2A645F2
:1003500000F2BB800846A4EB0E0440EA03409CE791
:10036000C6F12007B34022FA07FC4CEA030C20FA3E
:1003700007F401FA06F31C43F9404FEA1C4900FA5E
:1003800006F3B1FBF9F8200C1FFA8CFE09FB1811DB
:1003900040EA014108FB0EF0884202FA06F20BD94E
:1003A0001CEB010108F1FF3A80F08880884240F29E
:1003B0008580A8F102086144091AA4B2B1FBF9F0E2
:1003C00009FB101144EA014100FB0EFE8E4508D9DD
:1003D0001CEB010100F1FF346CD28E456AD9023862
:1003E000614440EA0840A0FB0294A1EB0E01A14247
:1003F000C846A64656D353D05DB1B3EB080261EBB5
:100400000E0101FA07F722FA06F3F1401F43C5E98E
:10041000007100263146BDE8F087C2F12003D840C4
:100420000CFA02FC21FA03F3914001434FEA1C4706
:100430001FFA8CFEB3FBF7F007FB10360B0C43EAF8
:10044000064300FB0EF69E4204FA02F408D91CEBA8
:10045000030300F1FF382FD29E422DD902386344A6
:100460009B1B89B2B3FBF7F607FB163341EA034146
:1004700006FB0EF38B4208D91CEB010106F1FF3895
:1004800016D28B4214D9023E6144C91A46EA00468C
:1004900038E72E46284605E70646E3E61846F8E61E
:1004A0004B45A9D2B9EB020864EB0C0E0138A3E767
:1004B0004646EAE7204694E74046D1E7D0467BE748
:1004C000023B614432E7304609E76444023842E7C0
:1004D00003685A004CBF43F0004323F00043184424
:1004E000704700BF2DE9F84329B34F1E0446154657
:1004F0003E464FF0000808EB060101EBD1714910B0
:1005000004EBC1094846FFF7E3FF0346C800083083
:100510008F42204409D0AB4209D8FFF7D9FF0138F8
:10052000A8420AD201F10108E5E7AB4205D98845A6
:1005300001D04E1EDFE74FF000094846BDE8F883C2
:10054000012807D0022807D0044B00280CBF18460A
:10055000002070470248704702487047190C000895
:100560001D0C0008210C000830B5234B83B0044655
:100570008D1E3BB301A92846AFF30080E8B1019975
:100580002A46FFF7AFFF0146B8B1FFF7A1FF4B685E
:10059000A064012B2CD0002B01F1040024DBFFF719
:1005A00097FF0023C4E913030368002B11DBFFF757
:1005B0008FFF2061002003B030BD0023092023619C
:1005C00003B030BD0D4B0E49C91AC9101846019130
:1005D000D6E7C3F30360FFF7B3FF0028206114BF21
:1005E0000020092003B030BD0123C4E91303DBE779
:1005F000002323610520DEE7000000009CEB0008DB
:1006000044EE00080368DA0710B5044606D49B07D9
:1006100000F1480009D500F05BFC2368590709D5B3
:100620001A070ED5DB0613D510BD00F049FC236870
:100630005907F5D404F1D00000F052FC23681A07E2
:10064000F0D404F5A87000F053FC2368DB06EBD46B
:1006500004F5E870BDE8104000F08EBC092070473A
:100660000346006800B11844704700BF704700BFE0
:1006700070B504460E46316C2046FFF775FF0546FF
:1006800088B9326C6261236932462146012098475D
:100690000828F0D0072806D12846316CFFF7E6FF7E
:1006A000301D00F001FC0CF0E7FE00BF2DE9F04723
:1006B0000D1DD0F80C80D0F81890074614460FCDC9
:1006C000ADF5727D0DF10C0CACE80F000FCDACE870
:1006D0000F000FCDACE80F0095E80F0002AE4FF011
:1006E000000E8CE80F00C6F800E020E0336C7B6160
:1006F0004FF4F07231467AA800F056FE3B697AAAB0
:10070000394650469847889B73642146CDE9006975
:1007100005463B463A460120C0470446E0B94FF43F
:10072000F0727AA9304600F03FFE082D1AD1316CE4
:100730003846FFF719FF09345FFA84FA05460028A6
:10074000D4D0B36B73643A46CDE900693B464AF0B6
:1007500010010120C04700B1092528460DF5727D22
:10076000BDE8F087072DF7D12046316CFFF77EFFFB
:1007700003A800F099FB00BF406C7047F0B5CB6B4D
:100780000B6401F1040C0E460546BCE80F00F9B0FD
:1007900001AC0FC4BCE80F000FC4BCE80F000FC4CD
:1007A0009CE80F004FF0FF3784E80F00009706E049
:1007B0002B696A46294698470828044608D11099AB
:1007C0002846FFF7D1FE0028F2D0092079B0F0BD0D
:1007D0006846FFF717FF062CF7D131462846FFF78A
:1007E00047FF00BFC160D96B8261196400221946BE
:1007F0005CE700BF70B5C66843690B64AEB90369B6
:100800000A4604460D46014602209847072805D0AF
:1008100008280FD129462046FFF72AFF3046296CC9
:10082000FFF724FF281D00F03FFB0122FFF73EFFEA
:100830000CF022FE0CF020FEC2681AB1CA6B0A64EA
:10084000002233E79AE700BF704700BF8368014684
:100850000BB1012018477047012912D009D873B98C
:100860000F2A0CD800EB820218465368009A1360D6
:1008700070470339012994BF0120022070470220EC
:1008800070470846704700BF00B585B00A46002390
:1008900003A900911946FFF7DFFF039805B05DF843
:1008A00004FB00BF012912D009D873B90F2A0CD854
:1008B00000EB8200009A12684260184670470339C4
:1008C000012994BF0120022070470220704708468A
:1008D000704700BF10B584B0002303AC03920094AE
:1008E0000A461946FFF7DEFF04B010BD70B5D36BA2
:1008F000136402F1040C05460C46BCE80F00ADF58C
:100900000E7D0DF15C0EAEE80F00BCE80F00AEE806
:100910000F00BCE80F00AEE80F009CE80F004FF09E
:10092000FF368EE80F00169610E0FFF7D3FF214642
:1009300016A8A847034616AA6946082083B9049B4F
:100940009847052806460CD0092809D026996846FC
:10095000FFF70AFE03466A460C2116A8002BE4D0D6
:10096000092616A8FFF74EFE30460DF50E7D70BD28
:100970002DE9F04FCC6C89B01E4654F8043B069428
:100980000D46174600F00308002E79D01A0C1B0400
:1009900005938DF81D200223D2B204EB82048DF85A
:1009A0001C302B6DB8F1020F08BFAC6B13F00103C4
:1009B0000CD005A9384600F079FB18B9082009B019
:1009C000BDE8F08F092009B0BDE8F08FD4F800A091
:1009D000BAF1000FEDD0019300F008030293022E4C
:1009E0004AD0B4F800A0B4F802900434AB6C29F0FB
:1009F000010B0F2138469B44FFF746FF834539D84A
:100A00002AF001039B44834594BF002001204FEA54
:100A1000490303F002030AF0010A43EA0A03012B27
:100A200049D0022B32D0002BCCD1B8F1000F02D02C
:100A3000002840F0CD800434D4F800A0BAF1000FB3
:100A4000CDD105A9384600F031FB0028BAD1019B71
:100A5000002BB3D00F213846FFF716FF0E210246B8
:100A60003846FFF737FF38466A4A0F21FFF732FF53
:100A70000720A8E70020CAE7D4F804900834B5E7B7
:100A80001B0205930323ADF81C308AE7236823F08B
:100A9000004BB8F1000F45D128B1029A002A5CD072
:100AA000BBF1000F74D0002B00DA04340BF1010B02
:100AB00004EB8B04C0E7B8F1000F19D1B0B1636843
:100AC0002268991C4FEAD2723FF47CAF05F15801BD
:100AD0000133049100F09080201DFFF7C1FD04ABAD
:100AE00001462846AFF3008000285BD10834A3E715
:100AF0000D213846D5F82090FFF7C6FE8145F5D187
:100B0000AB6A9C42F2D12046FFF7E2FC0F2102467D
:100B10003846FFF7DFFE38462A460021FFF7DAFEA7
:100B2000072050E70D213846D5F82090FFF7ACFE9E
:100B3000814501D02368B6E7AB6A9C42FAD1042311
:100B40000022C5E90B23E318C5F828B06B632368BE
:100B5000002B59DB01230193A8E705F15803CDF8D9
:100B60000C8004F1040AB04691461E460EE0504641
:100B70000496FFF775FD0022014604AB284609F1F3
:100B800001090AF1040AAFF30080E0B9D945EED1BA
:100B90000D213846FFF778FE049BAC62C5E90803D7
:100BA000062010E781460D213846FFF76DFEB9F1AA
:100BB000020F286225D12B46049A43F82C2F6B6232
:100BC000AC620620FFE646462368DDF80C806AE743
:100BD0002046FFF77DFC04340246AC6328461446E9
:100BE000AFF3008000283FF4EDAE384622460F21D7
:100BF000FFF770FE0720E6E60D213846FFF744FEBA
:100C00002862049B6B62DBE70BF1010004EB8000C0
:100C10007AE700BF000000000023A9E60123A7E651
:100C20000223A5E62DE9F0430646C3B015461C464F
:100C3000042900F2BF80DFE801F09E57BD2D0300BC
:100C4000002C40F0B780102A00F2B4800368D80668
:100C500000F1F98020AF384600F098F9B46B3946BE
:100C600000234FF0010C0CFA03F22A42204603F154
:100C7000010303D050F8042B0A600446042B01F151
:100C80000401F0D13846B46300F076F9002043B097
:100C9000BDE8F083032C40F08D8094B204EB124346
:100CA000102B4FEA124500F2858003681F0700F100
:100CB000D28020AF384600F03DF9B26B07EBC5019A
:100CC00054B10B46D01A01EBC401E4001D5843F89F
:100CD000045B8B42FAD122443846B26300F008F933
:100CE000002043B0BDE8F083012C4FEA124895B2D2
:100CF0005CD0052C5ED108EB0509B9F1200F59D85D
:100D0000B8F10F0F79D9A946002D40F08A80B36B56
:100D10006DB320AF4FF0000907EBC807043F03EBAA
:100D2000C50553F8041B47F8041FAB42F9D1B9F1CC
:100D3000000F0FD06F464146102938BF102107EB36
:100D4000C101843903EBC90553F8040B41F8040FC2
:100D5000AB42F9D1012C00F08680B8F10F0FB563DA
:100D600047D9B9F1000F02D0684600F0B9F8002069
:100D700043B0BDE8F083ECB9806B23461FFA82FCD8
:100D80000124371D04FA03F212EA0C0F014604D0C5
:100D900051F8042B47F8232008460133102BF1D1DA
:100DA00015F40055E3D1B063284604E008EB0503D1
:100DB000102B03D9022043B0BDE8F083B8F10F0F28
:100DC000F8D83368DA0706D5304623F0030340F835
:100DD000483B00F079F820AF384600F075F8B36B67
:100DE000002D97D11D460435B563384600F068F8EC
:100DF000BDE720A800F06CF8B3E7B9F1100F40D9B7
:100E0000A9F110093368D90708D523F0010330464A
:100E100043F0020340F8483B00F05EF8B9F1000FE0
:100E200032D033685A0720D4B8F10F0F25D96F4656
:100E30003846C8F1100500F057F8002DB36B7FF766
:100E40007AAF20AF68E723F01003336006F5E8704F
:100E500000F09CF8FEE623F00803036000F5A8709C
:100E600000F068F825E720AFBDE7304623F0040323
:100E700040F8D03B00F038F8D6E720A800F02CF876
:100E8000D5E74FF00009BDE7B8F10F0F3FF63FAFD0
:100E900020AF384600F020F8B36B002D7FF43AAF56
:100EA000384600F015F862E700F1340191E83800A7
:100EB0009C46A6464CF8045D90E8FF0FE54600BD51
:100EC00090EC210B704700BF80EC210B704700BFF6
:100ED00090EC200B704700BF80EC200B704700BFE8
:100EE000D0EC200B704700BFC0EC200B704700BF58
:100EF000F0EC0201F0EC0211F0EC0221F0EC023116
:100F0000F0EC0241F0EC0251F0EC0261F0EC027105
:100F1000F0EC0281F0EC0291F0EC02A1F0EC02B1F5
:100F2000F0EC02C1F0EC02D1F0EC02E1F0EC02F1E5
:100F3000704700BFE0EC0201E0EC0211E0EC02219E
:100F4000E0EC0231E0EC0241E0EC0251E0EC026145
:100F5000E0EC0271E0EC0281E0EC0291E0EC02A135
:100F6000E0EC02B1E0EC02C1E0EC02D1E0EC02E125
:100F7000E0EC02F1704700BFB0FC0181B0FC0191D0
:100F8000B0FC01A1B0FC01B1704700BFA0FC018121
:100F9000A0FC0191A0FC01A1A0FC01B1704700BF21
:100FA000EC4600B52DE900502DE9FF1F4FF000037E
:100FB0002DE90C0001A9FFF7E1FBDDF840E012B0DC
:100FC000704700BFEC4600B52DE900502DE9FF1F2A
:100FD0004FF000032DE90C0001A9FFF70BFCDDF831
:100FE00040E012B0704700BFEC4600B52DE900505C
:100FF0002DE9FF1F4FF000032DE90C0001A9FFF7B9
:101000001BFCDDF840E012B0704700BFEC4600B5B5
:101010002DE900502DE9FF1F4FF000032DE90C00D2
:1010200001ABFFF7DFFBDDF840E012B0704700BF17
:10103000EC4600B52DE900502DE9FF1F4FF00003ED
:101040002DE90C0001AAFFF751FCDDF840E012B0D9
:10105000704700BF027A03467AB9427AA2B141686A
:10106000013A10B44272086803220C1D1A7202027F
:101070005C60000E10BC1A6070470068013A1A727A
:1010800002021A60000E7047B020704700B585B0AC
:10109000002303AA009219460C22FFF7DDFB0398F8
:1010A00005B05DF804FB00BFF0E700BF2DE9F04399
:1010B000054685B00E464FF000083046FFF7CAFFE0
:1010C000B028044600F0BA80070620D500F0F003EF
:1010D000802B4DD0902B36D0A02B60D0B02B74D06D
:1010E000C02B00F08B8000F0F803D02B0BD100F068
:1010F00007020132052342F4002201212846FFF7AE
:1011000091FD0028D9D0092005B0BDE8F083830007
:10111000DBB21F1D0DF10C0900231946CDF800901C
:101120000D222846FFF798FB039BCDF80090600640
:101130004CBFDF1BFF1800230D22194628460397DA
:10114000FFF7B0FBB9E700F00D030D2BDBD003AFC9
:10115000002300F00F02194600972846FFF77CFB9A
:10116000002300970D2219462846FFF79BFBA4E7B2
:101170003046FFF76FFF24022043B0F5004FC2D086
:1011800004010023A2B219462846FFF74BFD0028B0
:10119000B9D114F4004F18BF4FF001088DE7C243D6
:1011A00002F007034FF47F621A41010702F47F62E5
:1011B0004FF0000348BF42F4804219462846FFF72B
:1011C00031FD00283FF479AF9DE7B1283BD0B2282C
:1011D00000F09380B32841D000F0FC03B42B92D0F0
:1011E00000F007020132012342F40022194628468A
:1011F000FFF718FD00283FF460AF84E7C6284AD007
:10120000C72854D000F0F803C02B63D0C82868D09A
:10121000C9287FF478AF3046FFF71CFF020300F0C7
:101220000F0002F4702201300243012105232846F9
:10123000FFF7F8FC00283FF440AF64E7B8F1000F77
:1012400018D0002060E73046FFF704FF0246002870
:101250003FF459AF10F0F003C8D054E73046FFF721
:10126000F9FE020300F00F03013302F470221A4367
:101270000123BBE703AC43460E22414600942846B7
:10128000FFF7EAFA009443460F2241462846FFF74B
:1012900009FB404638E73046FFF7DCFE020300F06A
:1012A0000F03013302F470221A4303239EE73046F2
:1012B000FFF7D0FE024600283FF425AF10F0F00300
:1012C0007FF421AF04212846FFF7ACFC00283FF44F
:1012D000F4AE18E700F00F020132032342F420229B
:1012E00084E73046FFF7B6FE00F0F00200F00F038F
:1012F0001032013343EA023297E700230DF10C0963
:101300000D221946CDF800902846FFF7A5FA304681
:10131000FFF7A0FE02064FF002040CD5039B00F07D
:101320007F00A040184403903046FFF793FE030669
:1013300004F10704F2D4039BCDF8009000F07F0283
:10134000A24003F501731A440023039219460D22AB
:101350002846FFF7A7FAB0E610B5C26C536884B010
:101360004FF0030C08321C0208461B0E01A9019421
:1013700002928DF80CC08DF80D30FFF797FE04B087
:1013800010BD00BF08B5FFF78FFE806C08BD00BF21
:1013900008B5FFF789FEC06CC379023300EB830008
:1013A00008BD00BF704700BF844641EA000313F048
:1013B00003036DD1403A41D351F8043B40F8043B5C
:1013C00051F8043B40F8043B51F8043B40F8043B1F
:1013D00051F8043B40F8043B51F8043B40F8043B0F
:1013E00051F8043B40F8043B51F8043B40F8043BFF
:1013F00051F8043B40F8043B51F8043B40F8043BEF
:1014000051F8043B40F8043B51F8043B40F8043BDE
:1014100051F8043B40F8043B51F8043B40F8043BCE
:1014200051F8043B40F8043B51F8043B40F8043BBE
:1014300051F8043B40F8043B403ABDD2303211D35E
:1014400051F8043B40F8043B51F8043B40F8043B9E
:1014500051F8043B40F8043B51F8043B40F8043B8E
:10146000103AEDD20C3205D351F8043B40F8043B5E
:10147000043AF9D2043208D0D2071CBF11F8013B5C
:1014800000F8013B01D30B8803806046704700BF22
:10149000082A13D38B078DD010F003038AD0C3F131
:1014A0000403D21ADB071CBF11F8013B00F8013B13
:1014B00080D331F8023B20F8023B7BE7043AD9D3D2
:1014C000013A11F8013B00F8013BF9D20B780370A7
:1014D0004B7843708B7883706046704710B58AB044
:1014E0001A481B4B03600323436000238360C360DF
:1014F0004FF4102202614FF40012426103764376EA
:101500008376C3760377437700F058FFD0B9002382
:10151000059306930122079200930193029303938C
:10152000049308920D230993084C6946204600F065
:10153000EBFF204601F084F80221204601F0E4F997
:101540000AB010BD00F0BBFAE1E700BF000A0020BE
:101550000064004010B58AB019481A4B0360032399
:10156000436000238360C3604FF4102202614FF494
:1015700000124261037643768376C376037743771E
:1015800000F01CFFC8B90E23059300230693012227
:101590000792009301930293039304930892084CDB
:1015A0006946204600F0B0FF204601F049F80221CC
:1015B000204601F0A9F90AB010BD00F080FAE2E778
:1015C000280A00200068004010B58AB00023059367
:1015D00006930793089309930368454A934204D0FE
:1015E000444A93423CD00AB010BD434A13680133C9
:1015F0001360012B27D000240194404B1A6B42F05A
:1016000008021A631B6B03F008030193019B032379
:1016100005930222069208930923099305A93848E5
:1016200001F084FD22460521142001F0C3FA1420A4
:1016300001F0F8FA22460521152001F0BBFA152029
:1016400001F0F0FACFE7002300932C4B1A6C42F024
:1016500000721A641B6C03F000730093009BCAE7CE
:1016600000230293254B1A6C42F080621A641B6CB3
:1016700003F080630293029B1F4A136801331360D7
:10168000012B28D0002404941C4B1A6B42F0020258
:101690001A631B6B03F002030493049B60230593FE
:1016A00002230693032308930923099305A91548E8
:1016B00001F03CFD22460521402001F07BFA40204C
:1016C00001F0B0FA22460521412001F073FA4120D1
:1016D00001F0A8FA87E700230393084B1A6C42F045
:1016E00000721A641B6C03F000730393039BC9E739
:1016F0000064004000680040FC09002000380240FF
:10170000000C02400004024008B50548054B036088
:1017100001F096FA00B908BD00F0D1F9FBE700BF6F
:10172000500A0020003002400268094B9A4200D063
:10173000704782B000230193064B1A6B42F480522B
:101740001A631B6B03F480530193019B02B0704733
:10175000003002400038024010B582B000240094EE
:10176000124B1A6B42F400121A631A6B02F4001245
:101770000092009A01941A6B42F480021A631B6B68
:1017800003F480030193019B224605210C2001F004
:1017900011FA0C2001F046FA224605213A2001F008
:1017A00009FA3A2001F03EFA02B010BD00380240BA
:1017B00008B506F04DFF09F071FF174C4FF480514A
:1017C000204601F0ABFD4FF4FA7006F049F84FF4F3
:1017D0008051204601F0A2FD4FF40061204601F047
:1017E0009DFD4FF4FA7006F03BF84FF4006120467F
:1017F00001F094FD4FF48061204601F08FFD4FF41D
:10180000FA7006F02DF84FF48061204601F086FD55
:101810000A2006F025F8CEE7001C024008B509F0C2
:10182000A3F909F049FB022006F01AF8F9E708B518
:1018300008F0C0FE08F0FEFF012006F011F8F9E7FD
:1018400008B509F00FFD052006F00AF8F9E70000D9
:10185000034B0360034B0B6080231360704700BF92
:10186000680C0020680A002010B59CB0244C0DF1D3
:10187000540CA646BEE80F00ACE80F009EE8070037
:101880008CE80700002115A805F0B5FF1D4B186076
:101890000DF1380C04F11C0EBEE80F00ACE80F008F
:1018A0009EE807008CE8070000210EA805F0A3FFC2
:1018B000154B18600DF11C0C04F1380EBEE80F003A
:1018C000ACE80F009EE807008CE80700002107A89D
:1018D00005F091FF0D4B1860EE4604F1540CBCE886
:1018E0000F00AEE80F009CE807008EE8070000211B
:1018F000684605F080FF064B18601CB010BD00BFA5
:1019000034E00008580A0020600A00205C0A002029
:10191000640A00202DE9F04F8FB0002409940A9446
:101920000B940C940D940194594B1A6B42F00202E3
:101930001A631A6B02F002020192019A02941A6B66
:1019400042F001021A631A6B02F001020292029A3B
:1019500003941A6B42F008021A631A6B02F0080231
:101960000392039A04941A6B42F004021A631A6BEE
:1019700002F004020492049A05941A6B42F48072F5
:101980001A631A6B02F480720592059A06941A6B18
:1019900042F080021A631A6B02F080020692069AE5
:1019A00007941A6B42F020021A631A6B02F02002AD
:1019B0000792079A08941A6B42F010021A631B6B85
:1019C00003F010030893089BDFF8D0B022464021B3
:1019D000584601F09DFCDFF8C8A022464021504641
:1019E00001F096FCDFF8BC9022464FF4E0514846E7
:1019F00001F08EFCDFF8B08001221021404601F09A
:101A000087FC22464FF49441224801F081FC0122D8
:101A10001146214801F07CFC4027099701250A95D1
:101A20000B9502260C9609A9584601F07FFB0997F1
:101A30000A950B950C9609A9504601F077FB4FF4D7
:101A4000E05309930A950B950C9409A9484601F0B7
:101A50006DFB102309930A950B950C9609A9404636
:101A600001F064FB4FF4944309930A950B950C968F
:101A700009A9084801F05AFB09950A950B950C969F
:101A800009A9054801F052FB0FB0BDE8F08F00BF77
:101A900000380240001002400004024000200240D2
:101AA00000080240001C02400000024008B5036824
:101AB000B3F1804F00D008BD00F05AFCFBE772B6CE
:101AC000FEE7000000B595B03022002108A80BF019
:101AD000BDFF00230393049305930693079301939B
:101AE000204A116C41F080511164126C02F0805256
:101AF0000192019A02931C4B1A6842F480421A60C8
:101B00001B6803F480430293029B012308934FF464
:101B10008033099302230E934FF480020F92062222
:101B20001092A822119212930723139308A802F08F
:101B300069FA98B90F2303930223049300230593B2
:101B40004FF4A05306934FF480530793052103A845
:101B500002F0A6FC20B915B05DF804FBFFF7AFFF5B
:101B6000FFF7ADFF003802400070004008B500F0FC
:101B7000E5FBFFF7A7FFFFF7CDFEFFF7EDFDFFF752
:101B8000ADFCFFF7E7FC00F023F800F071FA00F07D
:101B9000C3FAFFF7B9FD00F00FFA00F0A3FAA8208E
:101BA00009F020FD012108480AF04CFA0028F9D17B
:101BB00008F0F4FC0821054803F08CFAFFF754FE06
:101BC00005F014FEFEE700BFE81000208C11002095
:101BD00008B50F480F4B03604FF482734360002336
:101BE0008360C36002220261012242614FF40072ED
:101BF00082611022C2610362436283620A23C3626C
:101C000002F0E0FD00B908BDFFF759FFFBE700BF98
:101C1000E810002000300140F0B589B000230393A4
:101C2000049305930693079302681E4B9A4201D0D2
:101C300009B0F0BD0024009403F584335A6C42F4DB
:101C400080525A645A6C02F480520092009A0194B5
:101C50001A6B42F002021A631A6B02F0020201923E
:101C6000019A02941A6B42F001021A631B6B03F093
:101C700001030293029B1823039302270497032670
:101C800006960525079503A9074801F04FFA80231A
:101C90000393049705940696079503A9034801F05A
:101CA00045FAC5E700300140000402400000024050
:101CB00000B583B0002200920D4B596C41F4804175
:101CC0005964596C01F48041009100990192196C9A
:101CD00041F0805119641B6C03F080530193019B08
:101CE0000F216FF0010000F065FF03B05DF804FB09
:101CF0000038024030B589B0044600230193224BDE
:101D00001A6C42F001021A641B6C03F00103019388
:101D1000019B02A903A802F099FC069BD3B902F02B
:101D200075FC03461948A0FB03239B0C013B184894
:101D30004FF08042026040F2E732C260436000230D
:101D400003618360836103F0B7F8054630B128462C
:101D500009B030BD02F05AFC4300E3E70C4802F042
:101D600041FF05460028F2D11C2000F05BFF0F2C3C
:101D700001D90125EBE7002221461C2000F01AFFC3
:101D8000044B1C60E3E700BF0038024083DE1B43C6
:101D90004011002008000020FEE7FEE7FEE7FEE716
:101DA000FEE7704708B5024801F0D2F808BD00BF51
:101DB0007C12002008B5024800F0C4FD08BD00BF39
:101DC000000A002008B5024800F0BCFD08BD00BFB5
:101DD000000A002008B5024802F04CFF08BD00BF11
:101DE0004011002008B5024803F044FC08BD00BFC4
:101DF000DC12002008B5024803F03CFC08BD00BF1F
:101E00002013002008B5024801F0A2F808BD00BF69
:101E10001C12002008B5024800F094FD08BD00BF68
:101E2000280A002008B5024800F08CFD08BD00BF5C
:101E3000280A002008B5024801F0D6FD08BD00BF01
:101E4000986500200120704708B50BF01DFB162394
:101E500003604FF0FF3008BD08B54FF0FF31FFF7CA
:101E6000F3FFFEE710B503460C4A0D490D48006824
:101E700040B10C4800680344521A934206D8094AFC
:101E8000136010BD0748084C0460F2E70BF0FCFA41
:101E90000C2303604FF0FF30F3E700BF0000022087
:101EA0000004000088110020C8740020034AD2F802
:101EB000883043F47003C2F88830704700ED00E0CA
:101EC0000268094B9A4200D0704782B00023019308
:101ED000064B5A6C42F001025A645B6C03F001033A
:101EE0000193019B02B0704700000140003802409E
:101EF0000268094B9A4200D0704782B000230193D8
:101F0000064B5A6C42F400325A645B6C03F40033A3
:101F10000193019B02B07047004401400038024029
:101F200000B589B0002303930493059306930793A8
:101F300003681C4A934205D01B4A93421AD009B049
:101F40005DF804FB00230193184B1A6B42F010025A
:101F50001A631B6B03F010030193019B4FF40053B2
:101F60000393022304930123079303A9104801F06C
:101F7000DDF8E4E7002302930C4B1A6B42F02002D9
:101F80001A631B6B03F020030293029B402303930D
:101F9000022304930323079303A9064801F0C6F81C
:101FA000CDE700BF0000014000440140003802407E
:101FB000001002400014024010B592B000241094AA
:101FC000119409940A940B940C940D940E940F940C
:101FD0002022214601A80BF039FD2348234B036042
:101FE0009623436084604FF4FA73C36004614461D4
:101FF000846102F08DFF00282AD1002310931193F1
:1020000010A9194803F0E8F828BB602309930023BE
:102010000A930B930C930D930E930F93082209A927
:10202000114802F0D9FFC8B900230193029303932A
:10203000049305934FF400520692089301A90A48AD
:1020400003F010F968B90848FFF76AFF12B010BD35
:10205000FFF735FDD1E7FFF732FDD6E7FFF72FFD9C
:10206000E2E7FFF72CFDEEE78C11002000000140B5
:1020700000B589B000230193029303930493059361
:10208000069307931548164A026053224260836004
:1020900040F2CF72C2600361836102F00DFFA0B90C
:1020A0000E4802F035FF98B9602301930022029296
:1020B0000392059201A9094802F08EFF58B907481A
:1020C000FFF72EFF09B05DF804FBFFF7F8FCE7E728
:1020D000FFF7F5FCE8E7FFF7F2FCF0E7D41100208A
:1020E0000044014008B50A480A4B03604FF41653F8
:1020F000436000238360C36003610C2242618361FB
:10210000C36103F0D1F900B908BDFFF7D8FCFBE7C4
:10211000DC1200200010014008B50B480B4B036097
:102120000B4B43604FF4805383600023C360036113
:102130000C2242618361C36103F0B6F900B908BDA6
:10214000FFF7BDFCFBE700BF201300200048004064
:10215000A08601002DE9F0418AB0044600230593D2
:1021600006930793089309930368554A934205D051
:10217000544A93425ED00AB0BDE8F0810025009534
:10218000514B5A6C42F010025A645A6C02F0100221
:102190000092009A01951A6B42F002021A631A6BC0
:1021A00002F002020192019A02951A6B42F00102BA
:1021B0001A631B6B03F001030293029B80230593B8
:1021C0004FF00208CDF818800327089707260996D4
:1021D00005A93E4800F0AAFF4FF400730593CDF81F
:1021E000188007950897099605A9394800F09EFFC1
:1021F0003848394B03604FF0006343608560C56029
:102200004FF48063036145618561C5610562456284
:1022100000F0A6FD58B92F4BA3639C630022052153
:10222000252000F0C7FC252000F0FCFCA3E7FFF709
:1022300046FCF0E700250395234B1A6C42F48022FC
:102240001A641A6C02F480220392039A04951A6BA2
:1022500042F004021A631B6B03F004030493049B13
:102260004FF4406305930223069303230893072347
:10227000099305A9194800F059FF1948194B036043
:102280004FF0006343608560C5604FF48063036175
:1022900045618561C5610562456200F061FD58B91F
:1022A0000F4BA3639C6300220521272000F082FCD2
:1022B000272000F0B7FC5EE7FFF701FCF0E700BF66
:1022C0000010014000480040003802400004024075
:1022D000000002401C12002040640240000802403E
:1022E0007C12002028600240DFF834D00D480E49EF
:1022F0000E4A002302E0D458C4500433C4188C4260
:10230000F9D30B4A0B4C002301E013600432A242C4
:10231000FBD3FFF7CBFD0BF0BDF8FFF727FC7047B1
:102320000000022000000020DC09002050EE000820
:10233000E0090020C8740020FEE7000008B50B4B40
:102340001A6842F400721A601A6842F480621A60D5
:102350001A6842F480721A60032000F019FC0F2002
:10236000FFF7C8FCFFF7A4FC002008BD003C0240BA
:10237000034A1168034B1B780B441360704700BF7E
:102380006413002004000020014B1868704700BF50
:102390006413002038B50446FFF7F6FF0546B4F194
:1023A000FF3F02D0044B1B781C44FFF7EDFF401B9E
:1023B000A042FAD338BD00BF04000020002800F07E
:1023C000A18038B5044690F82030D3B12268136854
:1023D00043F001031360FFF7D7FF054623685A68EF
:1023E00012F0010F10D1FFF7CFFF401B0A28F5D9DB
:1023F000636A43F400336362052384F820300120CC
:1024000038BDFFF7E1F8E1E71A6822F002021A602E
:10241000FFF7BAFF054623685A6812F0020F0DD085
:10242000FFF7B2FF401B0A28F5D9636A43F4003373
:102430006362052384F820300120E1E7227E012A2F
:102440003DD01A6822F080021A60637E012B3BD0D7
:102450002268136823F040031360A37E012B39D058
:102460002268136823F020031360E37E012B37D02A
:102470002268136843F010031360237F012B35D0CB
:102480002268136823F008031360637F012B33D0A5
:102490002268136823F004031360A368E2681343FF
:1024A00022691343626913436268013A2168134346
:1024B000CB6100206062012384F82030A0E71A6815
:1024C00042F080021A60C0E72268136843F04003BC
:1024D0001360C2E72268136843F020031360C4E767
:1024E0002268136823F010031360C6E7226813689C
:1024F00043F008031360C8E72268136843F004033D
:102500001360CAE70120704790F82030013BDBB22E
:10251000012B05D9436A43F48023436201207047AD
:1025200030B5464BD3F8002242F00102C3F8002236
:10253000D3F8002222F47C52C3F80022D3F8002200
:10254000486A42EA0022C3F800224A6902F01F02E8
:10255000012000FA02F2D3F81C026FEA020C20EA12
:102560000200C3F81C02CB69C3B9344BD3F80C0288
:102570000CEA0000C3F80C028C884869CD6844EA74
:102580000544483043F830408C68088840EA0440ED
:102590004C6904F1480E03EBCE035860CB69012B64
:1025A0001ED08B69002B33D12448D0F804320CEABA
:1025B0000303C0F804320B698BBB2048D0F81432F7
:1025C0000CEA0303C0F814320B6A012B2ED01B4A0D
:1025D000D2F8003223F00103C2F80032002030BDEF
:1025E000164BD3F80C021043C3F80C028C884869D0
:1025F0000D6844EA0544483043F8304088894C6906
:102600008D6840EA0540483403EBC4035860C8E7CE
:102610000A48D0F804321343C0F80432CBE7074825
:10262000D0F814321343C0F81432CDE70349D1F87F
:102630001C321A43C1F81C22C9E700BF00640040E5
:1026400070B5044690F82050EDB2012D06D0436AD3
:1026500043F4002343620125284670BD022380F81D
:1026600020300268136823F001031360FFF78CFE2B
:10267000064623685B6813F0010F0CD0FFF784FE59
:10268000831B0A2BF5D9636A43F400336362052385
:1026900084F82030E0E700256562DDE730B590F88A
:1026A00020C00468A4680CF1FF3C5FFA8CFCBCF10C
:1026B000010F6BD814F0E05F62D0C4F3016CBCF181
:1026C000020F05D9436A43F400034362012062E02C
:1026D000012404FA0CF41C608B68002B3DD10D68BA
:1026E000CB68046843EA45550CF118031B01E5501B
:1026F00003680C690CF1180E03EB0E135C600B7D84
:10270000012B35D0D17993791B0443EA01635179C8
:1027100043EA012314790168234301EB0C11C1F84A
:102720008C31D17893781B0443EA0163517843EAF2
:102730000123117802680B4302EB0C12C2F88831B6
:1027400002680CF1180C4FEA0C1C52F80C3043F0E4
:10275000010342F80C3000201DE04C6843EAC4033A
:10276000CC6823430CF11804240105682B51BFE702
:10277000036803EB0E13596841F480715960C1E797
:10278000436A43F400134362012004E0436A43F4C4
:1027900080234362012030BD90F820C00CF1FF3C43
:1027A0005FFA8CFCBCF1010F00F2958030B451B996
:1027B0000468E46814F0030F10D1436A43F4001373
:1027C0004362012077E00468246914F0030F05D107
:1027D000436A43F40013436201206CE001F11B04DF
:1027E000240105682C5904F004049460002C64D181
:1027F00001F11B04240105682C59640D1460046860
:1028000001F11B0C4FEA0C1C54F80C4004F00204BC
:10281000D46004686444646804F00F0414610468BC
:1028200064446468C4F3072494610468644464687D
:10283000240C5461026802EB0112D2F8B8211A701C
:10284000026802EB0112D2F8B821C2F307225A70D3
:10285000026802EB0112D2F8B821C2F307429A7063
:10286000026802EB0112D2F8B821120EDA70026887
:1028700002EB0112D2F8BC211A71026802EB0112BC
:10288000D2F8BC21C2F307225A71026802EB01128E
:10289000D2F8BC21C2F307429A71026802EB01121E
:1028A000D2F8BC21120EDA7179B90268D36843F00C
:1028B0002003D360002030BC704701F11B042401C9
:1028C00005682C59E408546099E70268136943F0DD
:1028D00020031361EEE7436A43F48023436201203F
:1028E000704790F82030013BDBB2012B01D900206A
:1028F000704721B90368D86800F003007047036887
:10290000186900F00300704790F82030013BDBB2FB
:10291000012B05D9436A43F48023436201207047A9
:10292000026853691943516100207047704770472E
:1029300070477047704770477047704770477047DF
:10294000704770472DE9F84F054603685C69D3F876
:1029500004809F68D3F80CB0D3F810A0D3F8189077
:1029600014F001063BD017F0010616D001229A6040
:1029700017F0020F08D117F0040F0CD117F008065A
:1029800006D04FF4805608E0FFF7D0FF002604E0A1
:10299000FFF7CFFF01E04FF4006617F4807F0DD002
:1029A0002B684FF480729A6017F4007F40F08680A5
:1029B00017F4806F00F0868046F4005617F4803FCD
:1029C0000DD02B684FF480329A6017F4003F40F02E
:1029D000838017F4802F00F0838046F4004614F0C3
:1029E000080F07D01BF0100F04D046F400762B68B8
:1029F0001022DA6014F0040F02D01BF0080F79D116
:102A000014F0020F04D02B68DB6813F0030F78D1A9
:102A100014F0400F07D01AF0100F04D046F480666F
:102A20002B6810221A6114F0200F02D01AF0080F40
:102A30006BD114F0100F04D02B681B6913F0030F37
:102A40006AD114F4003F02D018F0100F68D114F4CA
:102A5000803F02D018F0080F69D114F4004F7AD0EB
:102A600018F0040F74D014F4807F04D019F0010F13
:102A700001D046F0010614F4007F04D019F0020FD3
:102A800001D046F0020614F4806F04D019F0040F50
:102A900001D046F0040614F4006F59D019F0700903
:102AA00056D0B9F1400F65D058D8B9F1200F5ED09B
:102AB000B9F1300F42D146F0200644E02846FFF736
:102AC00036FF7BE717F4006F02D046F4804675E7C7
:102AD0002846FFF72FFF71E72846FFF729FF7EE71B
:102AE00017F4002F02D046F4803678E72846FFF727
:102AF00022FF74E72B680822DA602846FFF71CFFE4
:102B00007EE7284608F042FD82E72B6808221A611A
:102B10002846FFF713FF8CE72846FFF70EFF90E7E4
:102B20002B6810225A602846FFF709FF8FE72B68B1
:102B300008225A602846FFF703FF8EE7B9F1100F0D
:102B400001D146F008062A68936923F07003936167
:102B50002B6804225A609EB9BDE8F88FB9F1500F76
:102B60000BD0B9F1600FEED146F48076EBE746F07A
:102B70001006E8E746F04006E5E746F08006E2E7A3
:102B80006B6A1E436E622846FFF7DBFEE4E7000037
:102B9000074AD36823F4E0631B041B0C000200F413
:102BA000E060034343F0BF6343F40033D3607047F6
:102BB00000ED00E000B5194BDB68C3F30223C3F15D
:102BC000070CBCF1040F28BF4FF0040C03F1040EF6
:102BD000BEF1060F18D9033B4FF0FF3E0EFA0CFC76
:102BE00021EA0C0199400EFA03F322EA0303194388
:102BF00000280BDB0901C9B200F1604000F561401B
:102C000080F800135DF804FB0023E5E700F00F00F7
:102C10000901C9B2024B1954F4E700BF00ED00E00E
:102C200014ED00E0002807DB00F01F02400901233B
:102C30009340024A42F82030704700BF00E100E0B4
:102C400058B110B5044643791BB1012363710020CC
:102C500010BD0371FEF768FDF7E70120704730B43F
:102C600005682C6824F480242C6004686360836801
:102C7000402B05D0036899600368DA6030BC704768
:102C800003689A600368D960F8E7000010B403682D
:102C9000D9B210390C4AA2FB014212090B4CA25CBA
:102CA000C2655F2909D923F47F7323F0030304333A
:102CB0008365806D5DF8044B704723F47F7323F0C8
:102CC00003038365F5E700BFABAAAAAAF0E00008FA
:102CD000836A826992B9012B0AD0022B02D00BB110
:102CE00000207047C36A13F0807F28D1002070470E
:102CF000C36AB3F1C07F24D000207047B2F5005FF3
:102D000009D0022B25D9032B25D1C36A13F0807F6C
:102D100023D100207047032B03D8DFE803F014040D
:102D2000140A00207047C36A13F0807F0DD1002081
:102D30007047C36AB3F1C07F09D0002070470120FB
:102D40007047012070470120704701207047012023
:102D50007047012070470020704701207047000035
:102D600070B50446FFF710FB002C5BD0054602232C
:102D700084F83530002384F834302268136823F057
:102D80000103136023681A6812F0010F0AD0FFF7DD
:102D9000FBFA431B052BF5D920236365032084F838
:102DA000350070BD1A68204810406168A2680A4367
:102DB000E1680A4321690A4361690A43A1690A4338
:102DC000E1690A43216A0A430243616A04291ED069
:102DD0001A602668756925F00705636A1D43042B90
:102DE00007D1A36A1D43E36A1BB12046FFF770FFBA
:102DF00090B975612046FFF749FFE26D3F2393408C
:102E0000836000206065012384F83530C9E7E16AFA
:102E1000206B01430A43DBE740236365012084F80C
:102E20003500BEE70120BCE73F8010F038B504460E
:102E3000856D90F8340001282BD0012084F83400EF
:102E400094F83500C0B2012804D0002384F834304F
:102E5000022038BD022084F835000020606520463D
:102E6000FFF7FDFEE26D3F239340AB6022681368DD
:102E700043F016031360236C23B12268136843F0F8
:102E8000080313602268136843F0010313600020F5
:102E9000DFE70220DDE770B50446866DFFF774FAC0
:102EA00094F83530DBB2022B06D080236365002313
:102EB00084F83430012070BD05462268136823F081
:102EC000160313602268536923F080035361236C57
:102ED000E3B12268136823F00803136022681368C3
:102EE00023F00103136023681B6813F0010F11D056
:102EF000FFF74AFA431B052BF5D92023636503200E
:102F000084F83500002384F83430D4E7A36C002B18
:102F1000DFD1E3E7E26D3F239340B360012384F800
:102F20003530002084F83400C5E790F83530DBB246
:102F3000022B03D08023436501207047052380F8CE
:102F400035300268136823F00103136000207047D6
:102F5000F0B583B0044600230193724B1D68724B99
:102F6000A3FB0535AD0A876D3E68C26D082393400B
:102F7000334210D003681A6812F0040F0BD01A689D
:102F800022F004021A60C26D08239340BB60436DB7
:102F900043F001034365E26D01239340334209D0BE
:102FA0002268526912F0800F04D0BB60636D43F059
:102FB00002036365E26D04239340334209D0226823
:102FC000126812F0020F04D0BB60636D43F004037B
:102FD0006365E26D10239340334224D02268126867
:102FE00012F0080F1FD0BB6023681A6812F4802FFC
:102FF0000DD01B6813F4002F04D1236C9BB1204625
:10300000984710E0A36C73B1204698470BE01A680C
:1030100012F4807F03D11A6822F008021A60236C30
:103020000BB120469847E26D20239340334255D0A0
:103030002268126812F0100F50D0BB6094F835303F
:10304000DBB2052B0ED023681A6812F4802F33D020
:103050001B6813F4002F2AD1636C002B3ED020464E
:1030600098473BE02268136823F016031360226838
:10307000536923F080035361236CA3B12268136862
:1030800023F008031360E26D3F239340BB600123EC
:1030900084F83530002384F83430236D002B3FD082
:1030A000204698473CE0A36C002BE7D1EBE7E36BAD
:1030B000A3B12046984711E01A6812F4807F09D125
:1030C0001A6822F010021A60012384F835300023B8
:1030D00084F83430E36B0BB120469847636DFBB145
:1030E000636D13F0010F17D0052384F83530226883
:1030F000136823F001031360019B01330193AB427A
:1031000004D823681B6813F0010FF5D1012384F85C
:103110003530002384F83430E36C0BB120469847F7
:1031200003B0F0BD00000020B5814E1B00230F2B23
:1031300000F2E48070B582B060E085685E00032430
:10314000B44025EA0405CC68B4402C43846045684B
:1031500025EA02054C68C4F300129A402A434260F3
:103160005AE0DC08083450F8246003F007029500A8
:103170000F22AA4026EA020E0A69AA4042EA0E027B
:1031800040F824205CE0072200E0002202FA0EF260
:103190002A4302345A4D45F824205A4A94686FEA6B
:1031A0000C0224EA0C054E6816F4801F01D04CEA8C
:1031B0000405544CA560E46802EA04054E6816F460
:1031C000001F01D04CEA04054E4CE560646802EA39
:1031D00004054E6816F4003F01D04CEA0405494C42
:1031E0006560246822404D6815F4803F01D04CEAA8
:1031F0000402444C226001330F2B7DD801229A40F7
:103200000C6804EA020C32EA0404F4D14C6804F0BD
:103210000304013C012C90D94A6802F00302032AFE
:1032200009D0C4685D000322AA4024EA02048A6827
:10323000AA402243C2604A6802F00302022A90D0E8
:1032400004684FEA430E032202FA0EF224EA020453
:103250004A6802F0030202FA0EF2224302604A6850
:1032600012F4403FC7D000220192274A546C44F424
:1032700080445464526C02F480420192019A9C088A
:10328000A51C1F4A52F8255003F003024FEA820E94
:103290000F2202FA0EF225EA02051C4A90423FF480
:1032A00074AF02F5806290421AD002F580629042BB
:1032B00018D002F58062904216D002F580629042EA
:1032C00014D002F58062904212D002F580629042E2
:1032D00010D002F5806290423FF455AF082255E7C6
:1032E000012253E7022251E703224FE704224DE770
:1032F00005224BE7062249E702B070BD704700BFC8
:1033000000380140003C014000380240000002400B
:103310000AB181617047090481617047436901EA1C
:10332000030221EA030141EA0241816170472DE96C
:10333000F04383B0D0F8008001EBC10300EB8303BE
:10334000DA6D5B6D9A4254D807460C469B1A01EB26
:10335000C10200EB8202926C9A4200D31A4602F13B
:1033600003094FEA990915E006F103094FEA9909A3
:1033700004EBC40507EB8505E96C3B7C0093B3B215
:10338000E2B2404602F065FFEB6C3344EB64EB6D58
:103390003344EB6508EB441303F510639B699BB260
:1033A0004B4512D304EBC40207EB8202D16D536D7F
:1033B00099420AD24BB15B1A04EBC40207EB8202BA
:1033C000966C9E42D0D31E46CEE704EBC40007EBBA
:1033D00080077A6DFB6D9A420FD804F00F04012329
:1033E000A340D8F8344824EA0304C8F8344800203D
:1033F00000E0012003B0BDE8F0830020FAE770B5DB
:103400008AB0002800F090800546046890F8BD342A
:103410003BB3032385F8BD34E36B13F4807F01D104
:1034200000232B61286802F02FFC2C4654F8106B07
:10343000EC460FCCACE80F000FCCACE80F0094E8E2
:1034400003008CE803002B1D0ECB304602F05EFB20
:10345000044658B1022385F8BD34012420460AB041
:1034600070BD80F8BC3405F0DFF9D2E70021286890
:1034700003F006F9234616E003EBC30205EB8202D4
:10348000012182F83D1082F83C30A2F8443000213E
:1034900082F840109164D16403EBC30205EB820211
:1034A00051650133DBB269688B42E5D316E004EB6A
:1034B000C40305EB8303002283F87D2283F87C425A
:1034C00083F88022C3F88822C3F88C2204EBC4035B
:1034D00005EB8303C3F894220134E4B2A142E6D899
:1034E0002C4654F8106BEC460FCCACE80F000FCC18
:1034F000ACE80F0094E803008CE803002B1D0ECB12
:10350000304602F01DFC044620B1022385F8BD348C
:103510000124A3E7002385F83830012385F8BD3462
:10352000286803F06AF899E7012497E7026890F8A1
:10353000BC34012B19D010B50446012380F8BC34EB
:10354000836A012B09D0206802F098FB206803F001
:1035500046F8002084F8BC0410BD8369012BF2D02A
:10356000936B43F480339363EDE7022070470000D0
:1035700070B504460D460068066C00EB411303F578
:1035800030639A682169012911D038498E4256D09A
:103590003DB905EBC50304EB8303D3F89432002B4C
:1035A0005ED0E9B2204605F089F9002070BD12F026
:1035B000080F09D02E498E42F7D912F4004FF4D0EB
:1035C0004FF400429A60F0E712F0200F02D0202260
:1035D0009A60EAE712F0280FE7D125498E4206D912
:1035E00012F4004F03D04FF400429A60DDE705EB80
:1035F000C50204EB8202D2F898121B69C3F31203CE
:10360000CB1AC2F89C327DB905EBC50204EB8202ED
:10361000D2F894226AB105EBC50204EB8202D2F81B
:103620008C120B44C2F88C32E9B2204605F046F900
:10363000BBE704F2C442012103F064F8F4E712F49A
:10364000004F03D04FF400429A60AEE712F0200F13
:1036500001D020229A60E9B2204605F02FF9A4E7B4
:1036600004F2C442002103F04DF89AE70A31544FA6
:103670000A30544F38B5044603681D6C03EB411300
:10368000D3F8081B0E4A954207D903F5306311F4AD
:10369000004F02D04FF400429A60204605F006F930
:1036A000074B9D4202D92369012B01D0002038BD70
:1036B00004F2C4420121206803F024F8F6E700BFB9
:1036C0000A30544F90F8BC34012B0DD010B504468D
:1036D000012380F8BC3480F83810006802F06FFFD6
:1036E000002084F8BC0410BD0220704738B50546A0
:1036F0008C4611F0800F29D101F00F0E0EEBCE0495
:10370000A40004F51E740444211D0EEBCE0E00EB44
:103710008E0E00208EF87D020CF00F0C81F800C098
:10372000CA600B714A780AB1A1F808C0022B1DD0FB
:1037300095F8BC34012B1CD0012385F8BC342868D3
:1037400002F0D7FB002085F8BC0438BD01F00F0063
:1037500000EBC001890038312944043100EBC0007E
:1037600005EB8000012480F83D40D5E700234B7134
:10377000DEE70220E9E710B504460A4611F0800FA3
:1037800020D101F00F0000EBC0039B0003F51E7376
:103790002344191D00EBC00004EB8000002380F8D7
:1037A0007D3202F00F020A7094F8BC34012B19D05C
:1037B000012384F8BC34206802F0EAFB002084F87E
:1037C000BC0410BD01F00F0000EBC0039B003833B8
:1037D0002344191D00EBC00004EB8000012380F896
:1037E0003D30DEE70220ECE710B501F00F0404EBFA
:1037F000C401890001F51E710144043104EBC40CBD
:1038000000EB8C0CCCF88C22CCF894320023CCF852
:103810009C328CF87D328CF87C420369012B06D0F7
:1038200064B9DAB2006802F023FC002010BD04EB9A
:10383000C40C00EB8C0CCCF89022F1E7DAB20068F3
:1038400002F01EFDF1E701F00F0101EBC10100EBF9
:103850008101D1F89C02704710B501F00F0404EB10
:10386000C401890038310144043104EBC40C00EB7D
:103870008C0CCCF84C20CCF854300023CCF85C30C5
:1038800001238CF83D308CF83C400369012B06D0B5
:1038900064B9DAB2006802F0EBFB002010BD04EB63
:1038A000C40C00EB8C0CCCF85020F1E7DAB20068C5
:1038B00002F0E6FCF1E738B501F00F0542689542E9
:1038C00039D804460B4611F0800F1FD101EBC1011E
:1038D000890001F51E710144043103EBC30300EBC1
:1038E0008303002283F87D2201238B700D7094F8EE
:1038F000BC34012B21D0012384F8BC34206802F0B1
:1039000003FE8DB1002084F8BC0438BD05EBC50171
:10391000890038310144043105EBC50300EB830312
:10392000012283F83D20DFE704F2C442217C2068B5
:1039300002F0E8FEE6E70120E7E70220E5E701F014
:103940000F034268934231D810B5044611F0800F3E
:103950001ED103EBC301890001F51E71014404313E
:1039600003EBC30200EB8202002082F87D020022FA
:103970008A700B7094F8BC34012B19D0012384F8A1
:10398000BC34206802F0EDFD002084F8BC0410BDBA
:1039900003EBC301890038310144043103EBC30256
:1039A00000EB8202012082F83D00E0E70120704731
:1039B0000220ECE708B511F0800F0CD101F00F01E7
:1039C00001EBC101890001F51E7101440431006859
:1039D00002F0E0FB08BD01F00F0101EBC10189001D
:1039E000383101440431F2E72DE9F04F83B0044649
:1039F0000568284602F040FE10B103B0BDE8F08F24
:103A00000646206802F007FE0028F6D005F500679C
:103A1000BB68C3F30D23C4F8FC34206802F0FBFD3F
:103A200010F0020F04D02268536903F002035361BF
:103A3000206802F0F0FD10F0100F13D02268936997
:103A400023F010039361D5F8208008F00F09C8F324
:103A50004343022B4BD0062B6FD02268936943F06F
:103A600010039361206802F0D6FD10F4002F76D188
:103A7000206802F0D0FD10F4802F40F0E080206834
:103A800002F0C9FD0028C0F26381206802F0C3FD86
:103A900010F4006F09D0BB6813F0010F40F0708183
:103AA0002268536903F400635361206802F0B3FD98
:103AB00010F4805F40F06881206802F0ACFD10F4E3
:103AC000005F40F0B581206802F0A5FD10F0080FFE
:103AD00040F0C681206802F09EFD10F0800F00F0DB
:103AE000D981AB6923F08003AB610126C2E147F6BF
:103AF000F07318EA030FB0D04FEA181B4FEAC9035E
:103B0000019309EBC90A04EB8A0AC8F30A12DAF82E
:103B10008C12284602F0CEFCCBF30A0BDAF88C327A
:103B20005B44CAF88C32019B4B4404EB8303D3F80B
:103B30009C325B44CAF89C328FE7082204F2C441ED
:103B4000284602F0B7FCC8F30A1809EBC90204EBD7
:103B50008202D2F89C324344C2F89C327DE720684E
:103B600002F05DFD8046B14635E005EB49130122C8
:103B7000C3F8082B49462046FFF7FAFC3CE005EB6A
:103B800049130822C3F8082B49462046FFF772FD67
:103B900035E009EBC90304EB830393F87F32012B73
:103BA00041D005EB49130222C3F8082B1AF0200F6D
:103BB00004D005EB49132022C3F8082B1AF4005F48
:103BC00005D005EB49134FF40052C3F8082B09F157
:103BD00001094FEA5808B8F1000F3FF449AF18F057
:103BE000010FF4D05FFA89FB5946206802F027FDE7
:103BF000824610F0010FB8D11AF0080FBFD11AF0A9
:103C0000100F04D005EB49131022C3F8082B1AF04B
:103C1000020FCBD06B6913F0800FBAD07B6843F4EE
:103C200080637B60B5E709EBC90304EB83030022E3
:103C300083F87F225946204604F092FEB1E72068BF
:103C400002F0F5FC8046B14625E05946204604F0D6
:103C500041FE1AF0080F04D005EB49130822C3F8FF
:103C600008291AF0100F04D005EB49131022C3F8ED
:103C700008291AF0400F04D005EB49134022C3F87D
:103C800008291AF0020F40D11AF0800F5BD109F118
:103C900001094FEA5808B8F1000F3FF4F0AE18F0F0
:103CA000010FF4D05FFA89FB5946206802F0D0FC7E
:103CB000824610F0010FCCD009F00F03012101FA68
:103CC00003F27B6B23EA02037B6305EB4913C3F822
:103CD000081923698B42B8D109EBC90304EB8303AC
:103CE000996CDA6C0A44DA64B9F1000FADD109EBD2
:103CF000C90304EB83035B6D002BA6D104F2C4421D
:103D00000121206802F0FEFC9FE74946284601F0A9
:103D1000C1FF09EBC90304EB830393F83F30012B88
:103D200005D005EB49130222C3F80829ACE709EBDB
:103D3000C90304EB8303002283F83F205946204641
:103D400004F014FEEDE749462046FFF7F0FA9EE73F
:103D50007B6823F001037B6094F8F434012B08D0D6
:103D6000204604F0F7FD2268536903F000435361D5
:103D70008BE6002184F8F414204600F041F9F2E7C4
:103D8000204604F0CFFD8BE67B6823F001037B60C7
:103D90001021206801F07EFF1AE005EB46134FF674
:103DA0007F31C3F80819D3F8002922F40012C3F8B0
:103DB0000029C3F8081BD3F8002B22F40012C3F823
:103DC000002BD3F8002B42F00062C3F8002B013621
:103DD0006368B342E1D8FB6943F00113FB61236BD5
:103DE000DBB1D7F8843043F00B03C7F884307B6C29
:103DF00043F00B037B64D5F8003823F4FE63C5F869
:103E0000003804F2C442217C206802F07BFC226866
:103E1000536903F4805353614EE67B6943F40053C6
:103E200043F02B037B613B6943F00B033B61E2E70B
:103E3000206802F056FC206802F04AF8E06026682C
:103E400000F0DEFB0146227B304601F0A5FE204655
:103E500004F051FD2268536903F40053536132E6C4
:103E6000204604F042FD2268536903F008035361C1
:103E700030E601366368B3420CD906EBC60304EBA7
:103E8000830393F87F32012BF3D1F1B22046FFF781
:103E900091FDEEE7206802F0BEFB10F4801F27D1F1
:103EA000206802F0B8FB10F4001F5BD0012328E06B
:103EB00001366368B3421DD905EB4613D3F80029D8
:103EC00006EBC60304EB830393F84030012BEFD1DC
:103ED000002AEDDA06EBC60304EB8303012283F824
:103EE0003F2066F07F01C9B22046FFF763FDDFE7A0
:103EF0000126DEE72268536903F480135361CFE79C
:103F0000013362689A4228D905EB4312D2F8001BAC
:103F100003EBC30204EB820292F88022012AEFD164
:103F20000029EDDA01F48031D4F8FC2402F001021A
:103F30009142E5D103EBC30204EB8202012182F836
:103F40007F12AA6942F08002AA616A6912F0800FAA
:103F5000D6D17B6843F400737B602268536903F415
:103F600000135361206802F056FB10F0804F10D10F
:103F7000206802F050FB10F0040F3FF43EAD2368C0
:103F80005D6815F0040F0DD1226853682B43536010
:103F900033E5204604F0F0FC2268536903F08043C7
:103FA0005361E5E7204604F0EDFCEDE710B404684A
:103FB000606A31B940EA0240A06200205DF8044B1B
:103FC00070478C46A36A00EB1340002308E003F11E
:103FD000400104EB8101496800EB11400133DBB281
:103FE0000CF1FF318B42F2D340EA02400CF13F0169
:103FF00004EB81014860E0E70368596200207047E4
:1040000070470000002800F0E08170B582B00446DF
:10401000036813F0010F3BD09F4B9B6803F00C0328
:10402000042B2CD09C4B9B6803F00C03082B21D055
:104030006368B3F5803F4FD0B3F5A02F52D0964BB5
:104040001A6822F480321A601A6822F480221A60F8
:104050006368002B50D0FEF797F905468E4B1B681E
:1040600013F4003F14D1FEF78FF9401B6428F5D9F3
:104070000320B1E1884B5B6813F4800FD8D0864BE6
:104080001B6813F4003F03D06368002B00F09F818E
:10409000236813F0020F54D07F4B9B6813F00C0F72
:1040A0003ED07D4B9B6803F00C03082B33D0E368B4
:1040B000002B68D0794B01221A60FEF765F905469E
:1040C000754B1B6813F0020F54D1FEF75DF9401BCE
:1040D0000228F5D903207FE16F4A136843F4803347
:1040E0001360B5E76C4B1A6842F480221A601A68B4
:1040F00042F480321A60ABE7FEF746F90546664B9C
:104100001B6813F4003FC3D0FEF73EF9401B642840
:10411000F5D9032060E1604B5B6813F4800FC6D1D2
:104120005D4B1B6813F0020F03D0E368012B40F0D6
:104130005081594A136823F0F803216943EAC10307
:104140001360236813F0080F42D063696BB3534BBD
:104150000122C3F8802EFEF717F905464E4B5B6F20
:1041600013F0020F34D1FEF70FF9401B0228F5D9E6
:10417000032031E1484A136823F0F803216943EA38
:10418000C1031360DDE7454B00221A60FEF7FCF81F
:104190000546414B1B6813F0020FD2D0FEF7F4F82E
:1041A000401B0228F5D9032016E13C4B0022C3F83E
:1041B000802EFEF7E9F80546374B5B6F13F0020FD0
:1041C00006D0FEF7E1F8401B0228F5D9032003E1F1
:1041D000236813F0040F77D02F4B1B6C13F0805F14
:1041E00033D1002301932C4B1A6C42F080521A6495
:1041F0001B6C03F080530193019B0125284B1B6826
:1042000013F4807F23D0A368012B34D0052B38D042
:10421000214B1A6F22F001021A671A6F22F0040272
:104220001A67A368002B3DD0FEF7AEF806461A4B7E
:104230001B6F13F0020F46D1FEF7A6F8801B41F268
:1042400088339842F3D90320C6E00025D6E7144A04
:10425000136843F480731360FEF796F80646104B1C
:104260001B6813F4807FCED1FEF78EF8801B0228E6
:10427000F5D90320B0E0084A136F43F00103136738
:10428000CFE7054B1A6F42F004021A671A6F42F02B
:1042900001021A67C5E700BF00380240000047422C
:1042A00000700040FEF770F80646524B1B6F13F08B
:1042B000020F08D0FEF768F8801B41F2883398425D
:1042C000F3D9032088E0EDB9A369002B00F08380C7
:1042D000484A926802F00C02082A51D0022B17D0EB
:1042E000454B00221A66FEF74FF80446414B1B6807
:1042F00013F0007F42D0FEF747F8001B0228F5D9E3
:10430000032069E03B4A136C23F080531364DBE71E
:10431000394B00221A66FEF737F80546354B1B6805
:1043200013F0007F06D0FEF72FF8401B0228F5D9C6
:10433000032051E0E369226A1343626A43EA82136D
:10434000A26A5208013A43EA0243E26A43EA02637C
:10435000284A5360284B01221A66FEF715F80446D6
:10436000244B1B6813F0007F06D1FEF70DF8001BED
:104370000228F5D903202FE000202DE000202BE0BB
:10438000012B2BD01B4B5B6803F48001E269914247
:1043900026D103F03F02216A8A4223D1616A47F69F
:1043A000C0721A40B2EB811F1ED103F44031A26AE1
:1043B0005208013AB1EB024F18D103F07063E26A80
:1043C000B3EB026F14D1002006E0012070470120FA
:1043D00002E0012000E0002002B070BD0120FBE7F8
:1043E0000120F9E70120F7E70120F5E70120F3E7D5
:1043F0000120F1E7003802400000474208B5254B94
:104400009B6803F00C03042B3FD0082B3FD1214BBA
:104410005A6802F03F025B6813F4800F12D01D4B04
:104420005968C1F388111C480023A1FB0001FBF768
:10443000CFFE184B5B68C3F3014301335B00B0FB55
:10444000F3F025E0134B5968C1F3881C4FEA4C1177
:10445000B1EB0C006EEB0E0E4FEA8E1343EA906345
:104460008101091A63EB0E03DB0043EA5173C900B3
:1044700011EB0C0C43F10003990200234FEA8C204E
:1044800041EA9C51FBF7A4FED3E7034800E0034850
:1044900008BD00BF00380240001BB7000024F40034
:1044A000002800F09B8070B50D4604464F4B1B68FA
:1044B00003F007038B4208D2CBB24C4A1370136847
:1044C00003F007038B4240F08B80236813F0020F48
:1044D00017D013F0040F04D0454A936843F4E05317
:1044E0009360236813F0080F04D0414A936843F4A3
:1044F000604393603E4A936823F0F003A1680B4346
:104500009360236813F0010F32D06368012B21D030
:104510009A1E012A25D9364A126812F0020F61D07C
:1045200033498A6822F0030213438B60FDF72CFFA6
:1045300006462F4B9B6803F00C036268B3EB820FB7
:1045400016D0FDF721FF801B41F288339842F0D945
:10455000032042E0264A126812F4003FE0D1012015
:104560003BE0234A126812F0007FD9D1012034E0E9
:104570001E4B1B6803F00703AB4207D9EAB21B4B83
:104580001A701B6803F00703AB422DD1236813F0A8
:10459000040F06D0164A936823F4E053E1680B43F6
:1045A0009360236813F0080F07D0114A936823F42F
:1045B0006043216943EAC1039360FFF71FFF0C4B7F
:1045C0009B68C3F303130B4AD35CD8400A4B1860B3
:1045D0000A4B1868FDF78EFB002070BD0120704764
:1045E0000120FAE70120F8E70120F6E7003C02404D
:1045F00000380240D8E00008000000200800002039
:10460000014B1868704700BF0000002008B5FFF795
:10461000F7FF044B9B68C3F38223034AD35CD84063
:1046200008BD00BF00380240E8E0000808B5FFF709
:10463000E7FF044B9B68C3F34233034AD35CD84083
:1046400008BD00BF00380240E8E000080F23036007
:104650000B4B9A6802F0030242609A6802F0F00283
:1046600082609A6802F4E052C2609B68DB0803F43F
:10467000E0530361034B1B6803F007030B607047B3
:1046800000380240003C02402DE9F04782B0054668
:10469000884617461E46FDF777FE0A9B1B1A03EB5A
:1046A0000609FDF771FE82462B4B1B68C3F3CB3323
:1046B00009FB03F301932B689C6838EA04030CBFE1
:1046C0004FF0010C4FF0000CBC4540D0B6F1FF3F5D
:1046D000F1D0FDF759FEA0EB0A0048450AD2B9F126
:1046E000000F07D0019A02B14A46019B013B01939A
:1046F0009146E0E72A68536823F0E00353606B6853
:10470000B3F5827F0BD0AB6AB3F5005F14D0012301
:1047100085F85130002385F85030032018E0AB684D
:10472000B3F5004F02D0B3F5806FECD12A6813685F
:1047300023F040031360E6E72A68136823F400536C
:1047400013602A68136843F400531360DFE7002006
:1047500002B0BDE8F08700BF0000002010B584B0B3
:104760000446164B1868164BA3FB0030400D4FF45F
:104770007A7303FB00F003906368B3F5827F0BD07C
:10478000039BBBB1039B013B039323689B6813F01E
:10479000800FF5D100200EE000920B460022802110
:1047A0002046FFF771FF30B1636D43F0200363656E
:1047B000032000E0002004B010BD00BF0000002076
:1047C000819F5E1600285AD010B50446436A33B95B
:1047D0004368B3F5827F05D00023C36102E0002364
:1047E000036143610023A36294F85130002B40D051
:1047F000022384F851302268136823F040031360C9
:10480000636803F48273A26802F404421343E2680B
:1048100002F400621343226902F002021343626948
:1048200002F001021343A26902F400721343E26929
:1048300002F038021343226A02F080021343A26A94
:1048400002F40052216813430B60638B03F00403EE
:10485000626A02F01002216813434B602268D36938
:1048600023F40063D36100206065012384F8513094
:1048700010BD84F850302046FDF7CEF9B8E701208E
:1048800070472DE9F04383B01F460A9D90F85030E1
:10489000012B00F01081044688469146012380F8E0
:1048A0005030FDF771FD064694F85130DBB2626876
:1048B000012B0AD0B2F5827F40F0E380A268002A83
:1048C00040F0E980042B40F0E880B8F1000F00F0E0
:1048D000E680B9F1000F00F0E480002F00F0E380E3
:1048E00094F85130DBB2042B02D0052384F8513008
:1048F00000236365C4F83890E787A787C4F8308041
:10490000E786A7862364636423681A6812F0400F61
:1049100003D11A6842F040021A60E368B3F5006FF1
:1049200011D063680BB1012F0BD1226B2368127871
:104930001A73236B01332363E38E9BB2013B9BB25B
:10494000E38601276BE063680BB1012F0BD1226B6B
:1049500023681288DA60236B02332363E38E9BB2F1
:10496000013B9BB2E38601271CE023689A6812F0A2
:10497000010F0ED0E28F92B25AB1DA68A36B1A809F
:10498000A36B0233A363E38F9BB2013B9BB2E3872C
:104990000127FDF7F9FC801BA84203D3B5F1FF3FC7
:1049A00040F08380E38E9BB21BB9E38F9BB2002B58
:1049B00053D023689A6812F0020FD6D0E28E92B2DA
:1049C000002AD2D0002FD0D0226B1288DA60236B5D
:1049D00002332363E38E9BB2013B9BB2E386002745
:1049E000C3E723689A6812F0010F0ED0E28F92B2EB
:1049F0005AB1DA68A36B1A70A36B0133A363E38F18
:104A00009BB2013B9BB2E3870127FDF7BDFC831BF3
:104A1000AB4202D3B5F1FF3F49D1002D49D0E38E1F
:104A20009BB213B9E38F9BB2BBB123689A6812F0B3
:104A3000020FD6D0E28E92B2002AD2D0002FD0D070
:104A4000226B12781A73236B01332363E38E9BB2BC
:104A5000013B9BB2E3860027C3E732462946204646
:104A6000FFF77CFE48B9A36863B901932368DA684D
:104A700001929B680193019B04E020236365012060
:104A800000E00220012384F85130002384F85030E4
:104A900003B0BDE8F0830220F4E70220F2E7012032
:104AA000F0E70120EEE70120ECE70320EAE703202E
:104AB000E8E70320E6E70220EAE7000030B4036AF3
:104AC00023F001030362036A4268846924F07304DB
:104AD0000D682C4323F0020C8B6843EA0C03104D45
:104AE000A84203D005F58065A84205D123F008034C
:104AF000CD682B4323F00403094DA84203D005F5EC
:104B00008065A84205D122F440724D692A438D691F
:104B10002A43426084614A684263036230BC704742
:104B20000000014030B4036A23F480730362036A17
:104B30004268C46924F0730C0C6844EA0C0523F441
:104B400000738C6843EA0423114CA04203D004F59F
:104B50008064A04206D123F40063CC6843EA0423B6
:104B600023F480630A4CA04203D004F58064A04281
:104B700007D122F440524C6942EA04128C6942EA9D
:104B800004124260C5614A68C263036230BC704768
:104B90000000014030B4036A23F480530362036AC7
:104BA0004468C26922F4E6420D6842EA052223F411
:104BB00000538D6843EA0533094DA84203D005F53B
:104BC0008065A84204D124F480444D6944EA8514E8
:104BD0004460C2614A680264036230BC704700BF2F
:104BE0000000014090F83D30DBB2012B37D10223A9
:104BF00080F83D300268D36843F00103D360036856
:104C0000194A934220D0B3F1804F1DD0A2F57C42C7
:104C1000934219D002F58062934215D002F580626A
:104C2000934211D002F5784293420DD002F57052B2
:104C3000934209D0A2F59432934205D01A6842F00B
:104C400001021A60002070479A6802F00702062AE3
:104C500007D01A6842F001021A6000207047012054
:104C600070470020704700BF000001407047704748
:104C70007047704710B5044603681A6912F0020FB6
:104C800011D0DA6812F0020F0DD06FF002021A6133
:104C90000123037703689B6913F0030F70D0FFF7BC
:104CA000E6FF0023237723681A6912F0040F12D05D
:104CB000DA6812F0040F0ED06FF004021A610223BA
:104CC000237723689B6913F4407F5FD02046FFF76A
:104CD000CEFF0023237723681A6912F0080F12D041
:104CE000DA6812F0080F0ED06FF008021A61042380
:104CF00023772368DB6913F0030F4ED02046FFF7BC
:104D0000B6FF0023237723681A6912F0100F12D020
:104D1000DA6812F0100F0ED06FF010021A6108233B
:104D200023772368DB6913F4407F3DD02046FFF7EB
:104D30009EFF0023237723681A6912F0010F03D026
:104D4000DA6812F0010F36D123681A6912F0800F69
:104D500003D0DA6812F0800F34D123681A6912F098
:104D6000400F03D0DA6812F0400F32D123681A697D
:104D700012F0200F03D0DA6812F0200F30D110BDEE
:104D8000FFF774FF2046FFF773FF8AE72046FFF71F
:104D90006DFF2046FFF76CFF9BE72046FFF766FF9D
:104DA0002046FFF765FFACE72046FFF75FFF204690
:104DB000FFF75EFFBDE76FF001021A612046FCF7C6
:104DC00075FEC1E76FF080021A61204600F074FAA8
:104DD000C3E76FF040021A612046FFF74AFFC5E7BC
:104DE0006FF020021A61204600F065FAC7E7000064
:104DF0000368304A904212D0B0F1804F0FD0A2F534
:104E00007C4290420BD002F58062904207D002F5BE
:104E10008062904203D002F57842904203D123F0A1
:104E200070034A681343234A90422AD0B0F1804F5E
:104E300027D0A2F57C42904223D002F580629042B6
:104E40001FD002F5806290421BD002F5784290425A
:104E500017D002F57052904213D002F58062904252
:104E60000FD002F5806290420BD0A2F598329042AA
:104E700007D002F58062904203D002F58062904232
:104E800003D123F44073CA68134323F080034A69B3
:104E9000134303608B68C3620B688362054B9842BF
:104EA00003D003F58063984201D10B6903630123AA
:104EB000436170470000014040B310B5044690F8CC
:104EC0003D30F3B1022384F83D30214651F8040B04
:104ED000FFF78EFF012384F8463084F83E3084F8D3
:104EE0003F3084F8403084F8413084F8423084F810
:104EF000433084F8443084F8453084F83D30002055
:104F000010BD80F83C30FCF7F3FFDBE70120704771
:104F100040B310B5044690F83D30F3B1022384F855
:104F20003D30214651F8040BFFF762FF012384F85E
:104F3000463084F83E3084F83F3084F8403084F8BE
:104F4000413084F8423084F8433084F8443084F8A7
:104F5000453084F83D30002010BD80F83C30FCF72F
:104F6000AFFFDBE70120704730B4036A23F0100382
:104F70000362036A4468826922F4E6420D6842EAE9
:104F8000052223F020038D6843EA0513114DA84242
:104F900003D005F58065A84206D123F08003CD68D3
:104FA00043EA051323F040030A4DA84203D005F558
:104FB0008065A84207D124F440644D6944EA850421
:104FC0008D6944EA8504446082614A6882630362B1
:104FD00030BC70470000014038B590F83C30012BE0
:104FE00066D004460D46012380F83C300C2A5AD87E
:104FF000DFE802F0075959591B5959593059595985
:1050000044000068FFF75AFD2268936943F00803E3
:1050100093612268936923F0040393612268936982
:1050200029690B43936100203EE00068FFF79CFF75
:105030002268936943F4006393612268936923F4BF
:105040008063936122689369296943EA012393612C
:10505000002029E00068FFF765FD2268D36943F06E
:105060000803D3612268D36923F00403D361226863
:10507000D36929690B43D361002015E00068FFF76D
:1050800089FD2268D36943F40063D3612268D36940
:1050900023F48063D3612268D369296943EA012339
:1050A000D361002000E00120002384F83C3038BDAB
:1050B0000220FCE701F01F01012303FA01FC036A4F
:1050C00023EA0C030362036A02FA01F10B43036251
:1050D0007047000010B504460846002942D194F8F4
:1050E0003E30DBB2013B18BF0123002B6ED10028FC
:1050F00051D1022384F83E30012201462068FFF797
:10510000D9FF2368334A934203D002F58062934269
:1051100003D15A6C42F400425A6423682D4A9342E8
:1051200049D0B3F1804F46D0A2F57C42934242D0A1
:1051300002F5806293423ED002F5806293423AD0FB
:1051400002F57842934236D002F57052934232D043
:10515000A2F5943293422ED01A6842F001021A60EE
:10516000002032E0042908D008290DD094F84130FD
:10517000DBB2013B18BF0123B7E794F83F30DBB245
:10518000013B18BF0123B0E794F84030DBB2013B8C
:1051900018BF0123A9E7042805D0082807D0022357
:1051A00084F84130A8E7022384F83F30A4E70223C3
:1051B00084F84030A0E79A6802F00702062A07D078
:1051C0001A6842F001021A60002010BD0120FCE7BD
:1051D0000020FAE70000014090F83C30012B3DD060
:1051E00010B4012380F83C30022380F83D3003687E
:1051F0005A689C6822F0700C0A6842EA0C025A60F5
:105200000368174A93421AD0B3F1804F17D0A2F522
:105210007C42934213D002F5806293420FD002F594
:10522000806293420BD002F57842934207D002F598
:105230007052934203D0A2F59432934204D124F0E9
:1052400080044A6814439C60012380F83D300023A9
:1052500080F83C3018465DF8044B704702207047D8
:105260000000014090F83C30012B22D0012380F84F
:105270003C30CB6823F440738A68134323F4806383
:105280004A68134323F400630A68134323F48053EA
:105290000A69134323F400534A69134323F48043F8
:1052A000CA69134302685364002380F83C301846EF
:1052B00070470220704770477047026802F10C0384
:1052C00053E8003F23F0C0030C3242E800310029CC
:1052D000F3D1202380F83D307047026802F10C03BF
:1052E00053E8003F23F490730C3242E80031002968
:1052F000F3D1026802F1140353E8003F23F00103E5
:10530000143242E800310029F3D1036B012B05D0A0
:10531000202380F83E30002303637047026802F1C7
:105320000C0353E8003F23F010030C3242E8003135
:105330000029F3D1ECE790F83D30DBB2212B01D00E
:10534000022070478368B3F5805F17D0036A5A1C48
:1053500002621A7803685A60C38C9BB2013B9BB20D
:10536000C3844BB90268D36823F08003D36002681A
:10537000D36843F04003D360002070470369002BDB
:10538000E4D1036A1B880268C3F308035360036A0D
:1053900002330362E0E7000038B50446026813698F
:1053A00023F44053C1680B431361836802691343BC
:1053B00042691343C2691A430168CB6823F4164358
:1053C00023F00C031343CB600268536923F440734A
:1053D00081690B4353610368314A934206D002F559
:1053E0008062934202D0FFF711F901E0FFF71EF946
:1053F000E369B3F5004F29D00021031849411B1878
:1054000041F10001C90041EA5371DB0018186368DB
:105410004FEA83024FEA937341F10001FAF7D8FE95
:10542000204DA5FB00325109642303FB11031B012E
:105430003233A5FB03235B0903F0F00202EB0112F8
:1054400003F00F03216813448B6038BD002302185A
:1054500043EB0301121841F10001C90041EA527106
:10546000D200101841F10001626892185B41FAF70E
:10547000AFFE0C4DA5FB00325109642303FB110361
:10548000DB003233A5FB03235B095A0002F4F872F8
:1054900002EB011203F00703216813448B60D4E789
:1054A000001001401F85EB5158B310B5044690F829
:1054B0003D300BB3242384F83D302268D36823F4B5
:1054C0000053D3602046FFF767FF2268136923F477
:1054D000904313612268536923F02A0353612268C1
:1054E000D36843F40053D36000202064202384F861
:1054F0003D3084F83E3010BD80F83C30FCF72AFE89
:10550000D8E701207047704708B50168CA6822F0E3
:105510004002CA60202280F83D20FFF7F4FF0020FF
:1055200008BD70477047704710B5846B23685A698F
:1055300094F83D30DBB2212B10D023685A6902F079
:10554000400294F83E30DBB2222B11D0236C43F0A2
:10555000100323642046FFF7E6FF10BD02F080022F
:10556000002AEAD00023E3842046FFF7A6FEE4E702
:10557000002AEBD00023E3852046FFF7AEFEE5E7E7
:1055800008B5806B0023C385C384FFF7CCFF08BD3B
:1055900090F83E30DBB2222B67D18368B3F5805F91
:1055A0004DD0826AB3F5805F04D0002B54D10369DB
:1055B000002B51D103685B681370836A01338362E7
:1055C000C38D9BB2013B9BB2C385002B4FD100B56D
:1055D00083B00268D36823F02003D3600268D368E5
:1055E00023F48073D3600268536923F0010353618D
:1055F000202380F83E30036B012B33D1002303635B
:10560000026802F10C0353E8003F23F010030C3250
:1056100042E800310029F3D103681A6812F0100F34
:1056200006D0002201921A6801925B680193019BE7
:10563000818D06F02FF9002003B05DF804FB0269AC
:10564000002AAED1826A03685B68C3F30803138043
:10565000836A02338362B3E703685B6803F07F0306
:105660001370AAE7FFF75DFFE5E70220704700200F
:105670007047000030B583B0044602681368D068F4
:10568000516913F00F0505D113F0200F02D010F06F
:10569000200F19D12DB111F0010119D110F4907F13
:1056A00016D1216B01297DD013F0800F03D010F0AB
:1056B000800F40F0158113F0400F03D010F0400F21
:1056C00040F0128103B030BD2046FFF761FFF9E7DB
:1056D00013F0010F06D010F4807F03D0226C42F04B
:1056E0000102226413F0040F04D019B1226C42F0BD
:1056F0000202226413F0020F04D019B1226C42F0AE
:105700000402226413F0080F07D010F0200F00D11C
:1057100019B1226C42F008022264226C002AD1D016
:1057200013F0200F02D010F0200F29D123685B69FD
:1057300003F04003226C12F0080F00D163B320463F
:10574000FFF7CBFD23685B6913F0400F20D0226880
:1057500002F1140353E8003F23F04003143242E8FF
:1057600000310029F3D1A36B73B1614A1A65A06BB4
:10577000FDF7DBFB0028A5D0A06B036D9847A1E7E0
:105780002046FFF705FFD1E72046FFF7CCFE99E75B
:105790002046FFF7C8FE95E72046FFF7C4FE00232A
:1057A00023648FE713F0100F3FF47EAF10F0100F5B
:1057B0003FF47AAF00230193136801935368019378
:1057C000019B536913F0400F50D0A26B13685B68C4
:1057D0009BB2002B3FF476AFA18D99427FF672AF5A
:1057E000E385D369B3F5807F37D0226802F10C03DB
:1057F00053E8003F23F480730C3242E80031002963
:10580000F3D1226802F1140353E8003F23F00103AF
:10581000143242E800310029F3D1226802F1140366
:1058200053E8003F23F04003143242E800310029DE
:10583000F3D1202384F83E3000232363226802F151
:105840000C0353E8003F23F010030C3242E8003110
:105850000029F3D1A06BFDF71EFBA18DE38D9BB258
:10586000C91A89B2204606F015F82BE7A18DE38D01
:105870009BB2C91A89B2E38D9BB2002B3FF422AFD1
:1058800000293FF41FAF226802F10C0353E8003FE8
:1058900023F490730C3242E800300028F3D12268E0
:1058A00002F1140353E8003F23F00103143242E8ED
:1058B00000300028F3D1202384F83E3000232363F6
:1058C000226802F10C0353E8003F23F010030C326E
:1058D00042E800300028F3D1204605F0DBFFF1E676
:1058E0002046FFF728FDEDE62046FFF70DFEE9E62E
:1058F0008155000808B5806B036B012B02D0FFF7C0
:1059000011FE08BD818D490805F0C4FFF9E708B50F
:105910000346806B1B681B6813F4807F2BD1002328
:10592000C385026802F10C0353E8003F23F480733F
:105930000C3242E800310029F3D1026802F114036D
:1059400053E8003F23F00103143242E800310029FC
:10595000F3D1026802F1140353E8003F23F040033F
:10596000143242E800310029F3D1202380F83E3080
:10597000036B012B05D0036B012B0FD0FFF7D1FD7B
:1059800008BD026802F10C0353E8003F23F0100346
:105990000C3242E800310029F3D1ECE7818D05F0AB
:1059A00079FFEDE730B583B0044613468162828506
:1059B00000250564222280F83E20826B2048D063B7
:1059C000A26B20481064A26B1F48D064A26B1565BF
:1059D00020680A46011DA06BFDF728FA019523688F
:1059E0001A6801925B680193019B84F83C5023691B
:1059F0005BB1226802F10C0353E8003F43F480736B
:105A00000C3242E800310029F3D1226802F114037C
:105A100053E8003F43F00103143242E8003100290B
:105A2000F3D1226802F1140353E8003F43F040032E
:105A3000143242E800310029F3D1002003B030BD18
:105A40000F590008F55800082955000890F83E3015
:105A5000DBB2202B29D110B582B0044639B342B352
:105A600090F83C30012B27D0012380F83C300363B1
:105A7000FFF798FFF0B9236B012B01D0012019E04B
:105A80000023019323681A6801925B680193019BCC
:105A9000226802F10C0353E8003F43F010030C327C
:105AA00042E800310029F3D104E0022070470120D0
:105AB00000E0012002B010BD0220FBE782B000230D
:105AC0000193019B01330193019A0F4B9A4215D820
:105AD0000369002BF5DA00230193036943F0010306
